:100000000FC100003EC100003CC100003AC1000029
:1000100038C1000036C1000034C1000032C1000008
:1000200030C100002EC100002CC100002AC1000018
:1000300028C1000026C1000024C1000022C1000028
:1000400020C100001EC100001CC100001AC1000038
:1000500018C1000016C1000014C1000062C20000F7
:1000600010C100000C94A30F0C94790F0AC100007A
:1000700008C1000006C1000004C1000002C1000068
:1000800000C10000FEC00000FCC00000FAC000007B
:10009000F8C00000F6C00000F4C00000F2C000008C
:1000A000F0C00000EEC00000ECC00000EAC000009C
:1000B000E8C00000E6C00000E4C00000E2C00000AC
:1000C000E0C00000DEC00000DCC00000DAC00000BC
:1000D000D8C00000D6C00000D4C00000D2C00000CC
:1000E000D0C0000012021502040208020C024C02E9
:1000F00019021D02230227022B02310235023902A6
:100100004C023F02430247027C3C3E5E2B3D3F2FA8
:100110005B5D3B2C2A225C0000000A0B02090C0DDF
:100120000E080703040100000000000000000000AA
:1001300000000000000000000000000000000000BF
:10014000000000001211100000000000000000007C
:10015000000000000000000000000000000000009F
:100160002200250028002B002E003100340002015F
:100170000000050108010B010000210024002700F8
:100180002A002D00300033000101000004010701A6
:100190000A0105050505070508080808020202020C
:1001A0000A0A080804040404010101010101010113
:1001B0000303030303030303040707070C0C0C0CDE
:1001C0000C0C0C0C020202020606060606060606C7
:1001D0000B0B0B0B0B0B0B0B010210202008081054
:1001E00020401020408002010201080402010102A7
:1001F0000408102040808040201008040201800480
:1002000002018040201008040201080402010102DA
:1002100004081020408001020408102040802714A8
:1002200011241FBECFEFD1E2DEBFCDBF00E00CBF77
:1002300012E0A0E0B2E0ECEDFBE200E00BBF02C098
:1002400007900D92AE38B107D9F725E0AEE8B2E0DD
:1002500001C01D92A83AB207E1F711E0C0E1D1E078
:1002600000E006C021970109802FFE010E947E1444
:10027000CF30D10780E00807A9F70E9426110C941F
:10028000EC15BECEFC01918D228D892F90E0805C13
:100290009F4F821B91098F739927089580E090E00A
:1002A000892B21F00E94060F811125C080E090E08B
:1002B000892B41F080E090E0892B21F00E94000022
:1002C00081111CC080E090E0892B41F080E090E03B
:1002D000892B21F00E940000811113C080E090E082
:1002E000892BA1F080E090E0892B81F00E94000032
:1002F00081110AC008950E940000D8CF0E9400001A
:10030000E1CF0E940000EACF0C9400000895DC01C8
:100310005996ED91FC915A973097B9F08389948959
:10032000A589B6894285538564857585841B950B9F
:10033000A60BB70B811520E89207A105B10538F08F
:100340008FEF9FE7A0E0B0E0089580E090E008958F
:10035000CF93DF931F92CDB7DEB76983DC01ED91B8
:10036000FC910280F381E02D41E050E0BE016F5F1F
:100370007F4F19950F90DF91CF910895089580E0F8
:1003800090E00895FC01848DDF01A80FB11DA35AF0
:10039000BF4F2C91848D90E001968F739927848FA5
:1003A000A689B7892C93A089B1898C9180648C939C
:1003B000938D848D981306C00288F389E02D808187
:1003C0008F7D80830895362F90E0FC01E85EFE4F1C
:1003D0004491FC01E852FE4F2491FC01EE56FE4F81
:1003E0009491992309F46BC0442309F455C050E05B
:1003F000FA013197E231F10508F04EC08827EE5836
:10040000FF4F8F4F0C947E14809180008F7707C030
:10041000809180008F7D03C080918000877F8093D2
:1004200080003AC084B58F7702C084B58F7D84BDCB
:1004300033C08091B0008F7703C08091B0008F7D72
:100440008093B00029C0809190008F7707C0809181
:1004500090008F7D03C080919000877F80939000F3
:100460001BC08091A0008F7707C08091A0008F7D76
:1004700003C08091A000877F8093A0000DC0809171
:1004800020018F7707C0809120018F7D03C080916C
:100490002001877F80932001E92FF0E0EE0FFF1FFE
:1004A000E25AFE4FA591B4918FB7F894EC913111B7
:1004B00003C020952E2301C02E2B2C938FBF0895AF
:1004C0003FB7F89480919A0290919B02A0919C0270
:1004D000B0919D0226B5A89B05C02F3F19F001964B
:1004E000A11DB11D3FBFBA2FA92F982F8827820FBA
:1004F000911DA11DB11DBC01CD0142E0660F771F0A
:10050000881F991F4A95D1F708952FB7F8946091E5
:1005100096027091970280919802909199022FBF54
:1005200008951F920F920FB60F9211242F933F93AD
:100530008F939F93AF93BF93809196029091970270
:10054000A0919802B09199023091950223E0230F77
:100550002D3720F40196A11DB11D05C026E8230FFB
:100560000296A11DB11D209395028093960290934F
:100570009702A0939802B093990280919A02909169
:100580009B02A0919C02B0919D020196A11DB11DFC
:1005900080939A0290939B02A0939C02B0939D0239
:1005A000BF91AF919F918F913F912F910F900FBE6F
:1005B0000F901F9018958FB7F89480918F028FBF7E
:1005C000089561E0FC018481FEDE80918E0281113C
:1005D00010928E0208958EBD00000DB407FEFDCF6F
:1005E0008EB508958FEFF7CF0F931F93CF93DF93BF
:1005F000EB018BDF8B01F6DF8F3F41F086DF601B65
:10060000710B6C177D07B8F380E001C081E0DF91CA
:10061000CF911F910F910895CF93DF93EC018E81BD
:10062000882379F08F8198859C012F5F3F4F388711
:100630002F838230924010F4D5DFF4CFCE01C1DF9A
:100640001E82DF91CF9108958CBD9DBD0895CF93FB
:10065000DF93EC0180918E02811108C081E08093CC
:100660008E0280913E0590913F05EEDF60E08C8127
:10067000DF91CF91A8CECF92DF92FF920F931F937D
:10068000CF93DF9300D01F92CDB7DEB76C01F62E6B
:1006900029833A834B835C83BFDFC601D8DF6CE2DA
:1006A00071E0C601A1DF8F2D806495DF08E110E0C5
:1006B0005C814B813A812981DA01C901002E04C095
:1006C000B695A795979587950A94D2F729833A838B
:1006D0004B835C8380DF0850110929813A814B816B
:1006E0005C81083F8FEF180739F7FF2029F0E8E019
:1006F000FE1204C087E803C085E901C08FEF6BDFFD
:1007000010E070DFF601828787FF04C01F3F11F001
:100710001F5FF7CF0F900F900F900F90DF91CF9149
:100720001F910F91FF90DF90CF900895AF92BF92ED
:10073000CF92DF92EF92FF920F931F93CF93DF93AD
:10074000EC016901C801820F931F8130924008F0CB
:1007500068C08E81882371F088819981AA81BB81CC
:10076000481759076A077B0729F48F819885C816AF
:10077000D90688F5488359836A837B838B858330C8
:1007800039F089E0440F551F661F771F8A95D1F70E
:100790009A01AB0161E1CE016EDF882319F083E09D
:1007A0008D833FC0B2DE5B011DDF8A878F3F41F43E
:1007B000ACDE6A197B096D327140B0F38FE003C083
:1007C0008E3F29F08DE08D83CE01FBDE2AC0188696
:1007D0001F8281E08E838F8198858C159D0538F46A
:1007E00001DF8F819885019698878F83F4CF670109
:1007F000E00EF11ECE14DF0429F0F4DEF601819341
:100800006F01F8CF8F819885080F191F18870F8304
:100810008985882319F00115124038F0CE01FCDEDD
:1008200004C0CE01CEDE80E001C081E0DF91CF9137
:100830001F910F91FF90EF90DF90CF90BF90AF90FE
:100840000895EF92FF920F931F93CF93DF93EC01E4
:100850007901411551056105710511F482E134C03A
:100860008B85833039F089E0440F551F661F771F51
:100870008A95D1F79A01AB0168E1CE01FCDE8823AD
:1008800011F084E021C08EEFA6DE87018EEFF81A0A
:10089000F80181918F019FDE0E151F05C9F78FEFBB
:1008A0009ADE8FEF98DE9EDE8A878F71853029F081
:1008B00081E18D83CE0185DE08C068E572E0CE015E
:1008C00093DE811106C085E18D83CE017ADE80E062
:1008D00010C020E030E0A9016DE0CE01CCDE811136
:1008E00003C080DE882311F084E1EECFCE0169DE03
:1008F00081E0DF91CF911F910F91FF90EF900895CC
:1009000080919002882399F1409100025091010258
:1009100060910202709103022FE932E080919F04FE
:100920009091A0048EDF811102C080E00895409173
:10093000910250919202609193027091940241153C
:1009400051056105710589F02FE932E080919F041E
:100950009091A00476DF882341F3109291021092C7
:10096000920210929302109294021092900281E0EF
:1009700008958F929F92AF92BF92EF92FF920F9342
:100980001F93CF934B015C01C42F80910002909183
:100990000102A0910202B091030288159905AA05EF
:1009A000BB05F1F0ADDF811102C080E01FC08FE90F
:1009B000E82E82E0F82E00E012E020E030E0B50101
:1009C000A40180919F049091A004B0DE882369F374
:1009D0008092000290920102A0920202B092030261
:1009E00080919002C82BC093900281E0CF911F911B
:1009F0000F91FF90EF90BF90AF909F908F900895D0
:100A00004F925F926F927F928F929F92AF92BF921E
:100A1000CF92DF92EF92FF920F931F93CF93DF93CA
:100A2000EC016A017B012801390142305105610561
:100A3000710510F480E072C089859A85AB85BC850C
:100A40000196A11DB11D84179507A607B70790F35E
:100A50008B889C88AD88BE888F89803129F4BB271C
:100A6000AF2D9E2D8D2D09C0DB01CA0147E0B69543
:100A7000A795979587954A95D1F7880E991EAA1E36
:100A8000BB1E8091000290910102A0910202B091E0
:100A9000030288169906AA06BB0679F48F8980316D
:100AA00099F4DD24EE24FF24C601880F991FFC0170
:100AB000E156FD4F5182408218C040E0C501B401AB
:100AC00058DF8111EBCFB6CFE894C7F8DD24EE24D0
:100AD000FF24C601880F991F880F991FFC01E1565A
:100AE000FD4F4082518262827382809190028160C8
:100AF000809390028A89823080F08D819E81AF81BF
:100B0000B885880E991EAA1EBB1E809291029092F3
:100B10009202A0929302B092940281E0DF91CF9171
:100B20001F910F91FF90EF90DF90CF90BF90AF900B
:100B30009F908F907F906F905F904F9008958F92CD
:100B40009F92AF92BF92CF92DF92EF92FF920F935C
:100B50001F93CF93DF93FC0181859285A385B48594
:100B60000196A11DB11D84179507A607B70710F4BC
:100B700080E05BC083899489A589B689C789C03123
:100B800029F4852E962EA72EBB2409C04A015B01AD
:100B9000C7E0B694A79497948794CA95D1F7E901D2
:100BA0006A017B018F01BC01CD01680D791D8A1D91
:100BB0009B1D8090000290900102A0900202B090D4
:100BC0000302681579058A059B0599F4F801878960
:100BD0008031A1F4B701A601552766277727440F76
:100BE000551FFA01E156FD4F80819181A0E0B0E0F0
:100BF00017C040E0BEDE8111E9CFBACFB701A60130
:100C00004F77552766277727440F551F440F551FE9
:100C1000FA01E156FD4F80819181A281B381BF70BD
:100C200088839983AA83BB8381E0DF91CF911F9151
:100C30000F91FF90EF90DF90CF90BF90AF909F907B
:100C40008F9008954F925F926F927F92AF92BF9272
:100C5000CF92DF92EF92FF920F931F93CF93DF9388
:100C600000D01F92CDB7DEB78C0149835A836B83C6
:100C70007C835901C12CD12C7601412C82E0582E65
:100C8000612C712C49815A816B817C819E012F5F7F
:100C90003F4FC80154DF882351F1D301C201F8014D
:100CA000058404C0880F991FAA1FBB1F0A94D2F79E
:100CB000C80ED91EEA1EFB1E49815A816B817C81B8
:100CC0008789803129F088EF9FEFAFEFBFE004C044
:100CD00088EF9FEFA0E0B0E0481759076A077B074D
:100CE00088F2F501C082D182E282F38281E00F9026
:100CF0000F900F900F90DF91CF911F910F91FF9068
:100D0000EF90DF90CF90BF90AF907F906F905F900B
:100D10004F9008958F929F92AF92BF92CF92DF92A1
:100D2000EF92FF920F931F93CF93DF93EC018D818E
:100D3000811102C080E076C00B891C892D893E8913
:100D40000417150726073707A8F36A017B018230CD
:100D500029F4CA86DB86EC86FD860DC0C114D10459
:100D6000E104F10451F41E821F82188619861A8646
:100D70001B861C861D8681E055C08A849B84AC84BA
:100D8000BD84EB8DFC8D258530E0275F3F4FB5019D
:100D9000A4014150510961097109022E04C07695E0
:100DA0006795579547950A94D2F7D701C6010197E1
:100DB000A109B10904C0B695A795979587952A957D
:100DC000D2F784179507A607B70720F089288A2845
:100DD0008B2849F44F89588D698D7A8D4E835F83B6
:100DE0006887798704C0841B950BA60BB70B4C0151
:100DF0005D018E010A5F1F4F81149104A104B104AB
:100E000009F4A7CF4E815F816885798598018B8D24
:100E10009C8D95DE91E0891A9108A108B108811195
:100E2000EBCF88CFDF91CF911F910F91FF90EF9083
:100E3000DF90CF90BF90AF909F908F9008953F929A
:100E40004F925F926F927F928F929F92AF92BF92DA
:100E5000CF92DF92EF92FF920F931F93CF93DF9386
:100E6000CDB7DEB72C970FB6F894DEBF0FBECDBF5F
:100E70005C01DC015B968D909C905C971696CD9002
:100E8000DD90ED90FC901997C114D104E104F104B8
:100E900039F0BFEFCB1ADB0AEB0AFB0A312C07C093
:100EA000F401C080D180E280F38033243394F401D4
:100EB00081859285A385B4859C01AD012F5F3F4F4D
:100EC0004F4F5F4F29873A874B875C872601370151
:100ED0001D821E821F821886F40181859285A3855A
:100EE000B4852D813E814F815885281739074A07DF
:100EF0005B0708F060C089859A85AB85BC858C1539
:100F00009D05AE05BF0550F482E0C82ED12CE12C22
:100F1000F12C92E0492E512C612C712C9E012F5FF7
:100F20003F4FB701A601C4010ADE882309F443C07C
:100F300089819A81AB81BC81892B8A2B8B2B41F0D3
:100F4000260137019FEF491A590A690A790A05C033
:100F5000C414D504E604F70491F02D813E814F813D
:100F600058852F5F3F4F4F4F5F4F2D833E834F83F9
:100F700058873FEFC31AD30AE30AF30AADCF0FEF46
:100F80001FEF2FEF3FE0B301A201C40139DD882339
:100F900091F0D50116964D915D916D917C911997C7
:100FA000411551056105710541F093018201C401AC
:100FB00027DD811102C080E02AC0D50116964D922E
:100FC0005D926D927C921997332051F0D301C2014A
:100FD0000196A11DB11DF40180839183A283B38387
:100FE000F5018789908DA18DB28D892B8A2B8B2B52
:100FF00069F4D50157964D925D926D927C925A9705
:1010000014968C911497806814968C9381E02C969A
:101010000FB6F894DEBF0FBECDBFDF91CF911F9109
:101020000F91FF90EF90DF90CF90BF90AF909F9087
:101030008F907F906F905F904F903F9008952F9288
:101040003F924F925F926F927F928F929F92AF9258
:10105000BF92CF92DF92EF92FF920F931F93CF93A5
:10106000DF931F921F92CDB7DEB7FC0185818823E5
:1010700009F4D6C0848180FFD3C021E02A8343894C
:1010800054896589768982859385A485B5854817B5
:1010900059076A077B0709F41A826F013A81832F87
:1010A00090E0DE0111964D013F01B6E06B0E711C20
:1010B000892B09F47CC0D6011A964D915D916D91F2
:1010C0007C911D975A01B1E0BB22F60125811A01DE
:1010D0002B0189E056944794379427948A95D1F749
:1010E000838D948D223061F4FC01828D938DA48DCB
:1010F000B58DBC01CD01620D731D841D951D44C0CD
:10110000DC0114961C9111501221A114B104C9F4F0
:10111000111117C0452B462B472B51F4F601878937
:10112000908DA18DB28D86839783A087B18709C0EA
:101130004681578160857185930101DD882309F41B
:101140006FC0F601238D348D86819781A085B1858E
:101150000297A109B109AC01BD01F901058404C0E0
:10116000440F551F661F771F0A94D2F7868597850F
:10117000A089B189840F951FA61FB71FBC01CD019F
:10118000610F711D811D911DD60114962C9126FFB2
:1011900014C00091000210910102209102023091CE
:1011A0000302601771078207930749F506C0FA81A9
:1011B000FF23B1F1898190E035C040E0DADB88237C
:1011C00079F1F501E156FD4FD401CF010196E81701
:1011D000F90719F021912D93FACFEFEF8E1A9E0A9D
:1011E000F60182859385A485B5850196A11DB11D63
:1011F00082879387A487B58780E090E059CF7401F8
:1012000001E010E09501AB01BC0180919F04909139
:10121000A0048CDA882321F0BFEF8B1A9B0AE0CF61
:101220008FEF9FEF0F900F90DF91CF911F910F9154
:10123000FF90EF90DF90CF90BF90AF909F908F90F6
:101240007F906F905F904F903F902F900895FC019A
:10125000818D928D009709F0F2CE8FEF9FEF089568
:101260000F931F93CF93DF93FC01818D928D009795
:10127000A9F0EF01E4DE8C010F3F8FEF180789F032
:10128000898D9A8DFC014285538564857585415011
:101290005109610971093EDDC80105C080E090E097
:1012A00002C08FEF9FEFDF91CF911F910F910895B3
:1012B000CF93DF93EC018D81882391F18C8187FF9F
:1012C0002CC06E857F858889998941E052DB88230F
:1012D00039F1EA8980E2E89FF0011124DF01A1568B
:1012E000BD4F1097E9F08D81823050F44B895C89B5
:1012F0006D897E895C964D935D936D937C935F972A
:101300008F89988DA98DBA8DE156FD4F938F828F6D
:10131000B58BA48B8C818F778C83DF91CF91F0CAB2
:1013200080E0DF91CF9108958F929F92AF92BF920C
:10133000CF92DF92EF92FF920F931F93CF93DF93A1
:1013400000D01F92CDB7DEB77C0180E2689F6001BC
:101350001124960121563D4FD9011B969C91917104
:1013600021F0842F827409F094C0142FF701628B4E
:101370008091000290910102A0910202B0910302BB
:1013800086879787A08BB18BF601E156FD4F448984
:10139000558960E070E0BA0155274427D701579678
:1013A0004D935D936D937C935A97828D938DA0E0BE
:1013B000B0E0482B592B6A2B7B2BD70157964D93C6
:1013C0005D936D937C935A97D9011B968C9188718C
:1013D00059F4848D958DA68DB78DF701838B948BF1
:1013E000A58BB68B81E011C0803109F052C0970106
:1013F0002D5E3F4FD7015B968D919C915C9722DCCF
:10140000882309F446C084E0F7018583812F8F701B
:10141000D70114968C931497F701168217821086C1
:1014200011861A961D921D921D921C921D9716FFF1
:1014300032C015968C91813061F511FF2AC0F701F9
:101440004389548965897689452B462B472B09F4B6
:101450005CC040E050E0BA01C7015CDC8823C9F001
:10146000F7018788908CA18CB28CC38CD48C82E0DD
:1014700090E0A0E0B0E0F60180839183A283B38383
:101480009E012F5F3F4FB501A401C60158DB8111BA
:1014900004C080E03AC081E038C000E010E098016C
:1014A000B501A401C601ACDA882399F389809A803A
:1014B000AB80BC80D60157968C91803129F088EFA3
:1014C0009FEFAFEFBFE004C088EF9FEFA0E0B0E078
:1014D00088169906AA06BB0698F2D70157961D9260
:1014E0001D921D921C925A97F701138A148A158A2D
:1014F000168A848180688483C701DADE882349F2F2
:1015000040E050E0BA01C70105DC0F900F900F904A
:101510000F90DF91CF911F910F91FF90EF90DF908F
:10152000CF90BF90AF909F908F9008954F925F9211
:101530006F927F92AF92BF92CF92DF92EF92FF9223
:101540000F931F93CF93DF93CDB7DEB72B970FB6D3
:10155000F894DEBF0FBECDBF7C01CE0101966C01B9
:10156000FC0190E28BE08C0D91938E13FDCFDA019C
:1015700030E047E09D91992339F19E3219F0E8E07F
:10158000F1E00AC04A3009F46CC138E04AE0F2CF19
:101590003196891709F465C184918111F9CF4317F8
:1015A00008F45FC18FED890F8E3508F05AC181E0D4
:1015B000830FF601E30FF11D3FE9390F3A3108F4CB
:1015C00090529083382FD6CF8981803209F449C157
:1015D000B22E8B01DB015B968D919C915C97F7019C
:1015E000948F838F16961D921D921D921C921997AF
:1015F000FB011286138614861586712CF8018285EC
:101600009385A485B585438954896589768984172E
:101610009507A607B70708F060C025E0B695A7951F
:10162000979587952A95D1F7F82FFF706F2ED801DF
:1016300015968C91823008F414C1C80100DD97FD25
:1016400010C1F80182859385A485B5854F96A11DAB
:10165000B11D82879387A487B587F0E26F9EC00192
:101660001124BC0161567D4F6115710509F4F9C063
:10167000DB012C91222319F0253EC1F427C0711003
:101680000EC0F701628A4091000250910102609100
:1016900002027091030246875787608B718BFC01B1
:1016A000E156FD4F8081811113C015C04BE050E021
:1016B000C6010E94D015892B09F0A0CF8B2D807315
:1016C000803309F4CEC04B2D662DC8C07720C9F2F7
:1016D0007724739493CF772473948B2D8271823106
:1016E00009F0BFC07720C9F0D7011E966D917D919A
:1016F0008D919C91519741E03CD9882309F4B1C068
:10170000F7016289F0E26F9FB001112461567D4FAD
:101710006115710509F077C0A4C0D80115968C91A8
:10172000823009F49EC0C8018ADB882309F499C07D
:10173000D8015B96ED91FC915C9716964D905D906B
:101740006D907C901997B2E04B1A510861087108AE
:10175000058404C0440C551C661C771C0A94D2F7FF
:1017600086859785A089B189480E591E6A1E7B1E01
:10177000A480E1E04E1A510861087108AA2001F125
:10178000BFD8882309F46DC0EFE9F2E0119224E09C
:10179000EF39F207D9F7D301C2018A0D911DA11DBE
:1017A000B11D8093000290930102A0930202B093B6
:1017B000030280919002816080939002AA94DECF10
:1017C000D8015B96ED91FC915C9780E092E0A0E0FF
:1017D000B0E0058404C0880F991FAA1FBB1F0A949C
:1017E000D2F7F8014389548965897689840F951F5A
:1017F000A61FB71F838B948BA58BB68BD7015296F0
:101800001C926FE972E080E2FB0111928A95E9F780
:101810008BE0F601DB0101900D928A95E1F781E200
:1018200098E2DB0151969C938E93509720E038E02C
:101830001F963C932E931E9753969C938E9352978C
:1018400059969C938E93589757963C932E93569700
:1018500057D8882331F04B2DF7016289C70164DD29
:1018600001C080E02B960FB6F894DEBF0FBECDBF4F
:10187000DF91CF911F910F91FF90EF90DF90CF906C
:10188000BF90AF907F906F905F904F900895CF93EF
:10189000DF93EC010DDD882311F01D8281E0DF91E3
:1018A000CF910895FC01818D928D009709F000CDB4
:1018B00008952F923F924F925F926F927F928F92F4
:1018C0009F92AF92BF92CF92DF92EF92FF920F93CF
:1018D0001F93CF93DF9300D01F92CDB7DEB78C015B
:1018E0005B011A01DC0115968C9115978130C1F4CA
:1018F00014968C9181FF14C082FF1AC0F8014389AD
:1019000054896589768982859385A485B5858417F0
:101910009507A607B70761F0C801FCD9811108C077
:1019200081E090E0F8019383828380E090E036C10B
:10193000610183C0D8015B968D919C915C97FC01FD
:10194000248121502A013B0139E076946794579411
:1019500047943A95D1F7722E74207A01F1E0FF2274
:10196000772009F476C080E092E08E199F09460145
:101970008C159D0508F44C01D8015B962D913C9186
:101980005C9716968D919D910D90BC91A02D02971C
:10199000A109B109F901058404C0880F991FAA1F84
:1019A000BB1F0A94D2F74685578560897189840FD9
:1019B000951FA61FB71F9C01AD01270D311D411DAD
:1019C000511D29013A01811432E0930609F086C0C5
:1019D0008091000290910102A0910202B091030255
:1019E00084159505A605B70559F48FEF9FEFDC0127
:1019F0008093000290930102A0930202B09303022D
:101A00009501B301A20180919F049091A0040E94CE
:101A10002104882309F484CF9EEFB91AC818D90885
:101A2000F80182859385A485B585880D991DA11D32
:101A3000B11D82879387A487B587D8011A964D91E7
:101A40005D916D917C911D97C114D10409F072CF05
:101A500085C0E114F10409F086CF16964D915D9191
:101A60006D917C911997411551056105710559F4E6
:101A700057968D919D910D90BC91A02D0097A10539
:101A8000B10531F520C09E012F5F3F4F58D8882304
:101A900009F44CCF89819A81AB81BC81F801238DF7
:101AA000348DF9012789203129F048EF5FEF6FEF7E
:101AB0007FE004C048EF5FEF60E070E084179507B7
:101AC000A607B70728F0C801BAD981114CCF28CF93
:101AD000F80186839783A087B18745CFE114F1048D
:101AE00029F5D8011A964D915D916D917C911D97C4
:101AF00053968D919D910D90BC91A02D481759073B
:101B00006A077B0798F00E948004882309F408CFB5
:101B1000409200025092010260920202709203020F
:101B20008091900281608093900208C041E0C301DF
:101B3000B2010E94B904882309F4F2CED501F7015D
:101B4000E156FD4FCF01880D991DE817F90719F0EF
:101B50002D912193FACFA80CB91C60CF53968D918B
:101B60009D910D90BC91A02D84179507A607B707EE
:101B700040F4F801438B548B658B768B84818068AD
:101B80008483D80114968C9183FD02C0C10106C0E4
:101B9000C8018EDB882309F4C3CEF8CF0F900F90D5
:101BA0000F900F90DF91CF911F910F91FF90EF90C9
:101BB000DF90CF90BF90AF909F908F907F906F906D
:101BC0005F904F903F902F900895CF93DF931F9297
:101BD000CDB7DEB7698341E050E0BE016F5F7F4F54
:101BE00068DE0F90DF91CF910895CF93DF93EC01E2
:101BF000898D9A8D009739F481E090E09B838A83E8
:101C000080E090E00AC0FC011382128252DEE98D6E
:101C1000FA8D22813381232B79F7DF91CF910895BB
:101C2000FC01DB0112968D919C9113979383828323
:101C300080E292E09183808314968C911497848340
:101C400015968C911597858316964D915D916D91A2
:101C50007C91199746835783608771871A964D91B7
:101C60005D916D917C911D9742875387648775873D
:101C70001E964D915D916D917C9151974687578746
:101C8000608B718B52968C915297828B53964D91AB
:101C90005D916D917C915697438B548B658B768BC0
:101CA00057964D915D916D917C915A97478B508FCE
:101CB000618F728F5B968D919C915C97948F838FCF
:101CC0000895EF92FF920F931F93CF93DF93EC0150
:101CD0007B018A011B821A8288EE93E0A0E0B0E0CB
:101CE0008C839D83AE83BF838CE292E0998388834B
:101CF0008DE190E024D69A8F898F009771F02DE1C5
:101D0000F701DC0101900D922A95E1F74CE050E0DB
:101D1000B801CE010C9651D7188EDF91CF911F914B
:101D20000F91FF90EF900895CF92DF92EF92FF9284
:101D30000F931F93CF93DF936C017A018B01C0E067
:101D4000D0E0CE15DF0589F0D8016D918D01D60167
:101D5000ED91FC910190F081E02DC6011995892B40
:101D600011F47E0102C02196ECCFC701DF91CF9123
:101D70001F910F91FF90EF90DF90CF900895FC019D
:101D8000538D448D252F30E0842F90E0821B930BE0
:101D9000541710F0CF96089501970895FC01918D86
:101DA000828D981761F0828DDF01A80FB11D5D96BD
:101DB0008C91928D9F5F9F73928F90E008958FEF2B
:101DC0009FEF0895FC01918D828D981731F0828DDF
:101DD000E80FF11D858D90E008958FEF9FEF089536
:101DE000DBD66115710579F0FB0101900020E9F760
:101DF0003197AF01461B570BDC01ED91FC9102803E
:101E0000F381E02D199480E090E0089581EA94E058
:101E10000E94420121E0892B09F420E0822F0895DD
:101E2000EF92FF920F931F93CF93DF93EC0181E02A
:101E3000888F9B8D8C8D981305C0E889F9898081E6
:101E400085FD24C0F62E0B8D10E00F5F1F4F0F7322
:101E50001127E02E8C8DE8120CC00FB607FCFACFCC
:101E6000E889F989808185FFF5CFCE010E94C20102
:101E7000F1CF8B8DFE01E80FF11DE35AFF4FF08289
:101E80000B8FEA89FB898081806207C0EE89FF8918
:101E90006083E889F98980818064808381E090E0B3
:101EA000DF91CF911F910F91FF90EF900895CF9305
:101EB000DF93EC01888D8823C9F0EA89FB89808152
:101EC00085FD05C0A889B9898C9186FD0FC00FB624
:101ED00007FCF5CF808185FFF2CFA889B9898C9165
:101EE00085FFEDCFCE010E94C201E7CFDF91CF91F8
:101EF00008951F920F920FB60F9211240BB60F92F6
:101F00002F933F934F935F936F937F938F939F9301
:101F1000AF93BF93EF93FF9381EA94E00E94C201D5
:101F2000FF91EF91BF91AF919F918F917F916F91B1
:101F30005F914F913F912F910F900BBE0F900FBE6D
:101F40000F901F9018951F920F920FB60F921124A9
:101F50000BB60F922F938F939F93EF93FF93E09184
:101F6000B104F091B2048081E091B704F091B8041B
:101F700082FD12C090818091BA048F5F8F7320918F
:101F8000BB04821751F0E091BA04F0E0EF55FB4F2B
:101F9000958F8093BA0401C08081FF91EF919F914A
:101FA0008F912F910F900BBE0F900FBE0F901F902F
:101FB00018958F929F92AF92BF92CF92DF92EF923D
:101FC000FF92CF93DF93C82F80E495E09093A00415
:101FD00080939F04CC2369F1C53010F080E00CC1E0
:101FE00040E060E070E0CB010E94B9048823B1F3C7
:101FF00020E1C29FC001112481579D4FFC01E25492
:10200000FE4F20812F7751F73C96408151816281AC
:102010007381443651056105710500F33497C08022
:10202000D180E280F380C114D104E104F10421F4F1
:10203000D5CFC12CD12C760140E0C701B6010E945A
:10204000B904882359F28091AA029091AB028115BC
:10205000924021F6A091AF02AA2309F4BFCF60916C
:10206000AD027091AE026115710509F4B7CF2091F0
:10207000AC02222309F4B2CFA0935E052093500551
:1020800080E030E0E1E0F0E0C82FAF01082E02C0B0
:10209000440F551F0A94E2F72417350741F0982F93
:1020A0008F5F983089F789E08093590597CF8093A7
:1020B00059052091B5023091B6022115310519F06C
:1020C00040E050E008C02091C3023091C40240912A
:1020D000C5025091C602209351053093520540939A
:1020E00053055093540546015701860E971EA11CB7
:1020F000B11C80925F0590926005A0926105B0923C
:102100006205E091B002F091B102F0936505E093B1
:102110006405B0E0FBD3860E971EA81EB91E809200
:10212000660590926705A0926805B092690585E002
:10213000EE0FFF1F8A95E1F7E150FE4FEF2FFF27CB
:10214000E6958E0E9F1EA11CB11C80925A0590929E
:102150005B05A0925C05B0925D052091B2023091C2
:10216000B3022115310521F0A90160E070E008C03B
:102170004091BF025091C0026091C1027091C202B1
:10218000D701C60188199909AA09BB09840F951FAF
:10219000A61FB71F04C0B695A79597958795CA95B2
:1021A000D2F78093550590935605A0935705B093A9
:1021B0005805853F2FE09207A105B10510F48CE08A
:1021C00018C0853F9F4FA105B10510F480E111C0F3
:1021D0008091CB029091CC02A091CD02B091CE0221
:1021E0008093660590936705A0936805B093690591
:1021F00080E28093630581E0DF91CF91FF90EF90C3
:10220000DF90CF90BF90AF909F908F90089590E017
:10221000FC01E852FE4F2491FC01EE56FE4F8491E2
:10222000882399F090E0880F991FFC01E858FE4F31
:10223000A591B491FC01E25AFE4F859194918FB71C
:10224000F894EC91E22BEC938FBF0895CF93DF933A
:10225000CDB7DEB7C457D1090FB6F894DEBF0FBEB5
:10226000CDBF789484B5826084BD84B5816084BD1F
:1022700085B5826085BD85B5816085BD80916E0024
:10228000816080936E001092810080918100826055
:102290008093810080918100816080938100809192
:1022A00080008160809380008091B1008460809381
:1022B000B1008091B00081608093B0008091910066
:1022C0008260809391008091910081608093910061
:1022D000809190008160809390008091A100826045
:1022E0008093A1008091A10081608093A1008091E2
:1022F000A00081608093A000809121018260809382
:102300002101809121018160809321018091200130
:1023100081608093200180917A00846080937A00AC
:1023200080917A00826080937A0080917A00816047
:1023300080937A0080917A00806880937A0010926E
:10234000C100E091B104F091B20482E08083E09199
:10235000AD04F091AE041082E091AF04F091B004AE
:102360008FEC80831092B904E091B504F091B6042B
:1023700086E08083E091B304F091B40480818061B1
:102380008083E091B304F091B404808188608083FD
:10239000E091B304F091B404808180688083E0917F
:1023A000B304F091B40480818F7D808385E32FDFB7
:1023B00010924B0510924905109246051092450562
:1023C00085E3809344050E9485028B01809144053A
:1023D0001EDF61E0809144050E94E301FFB6F8949E
:1023E00080919E02811121C0E7ECF1E08491EDE043
:1023F000F2E09491E82FF0E0EE0FFF1FE858FE4F57
:10240000A591B491EC91E92321F461E085E30E9468
:10241000E30185E3FCDE8CB580618CBD8CB5806406
:102420008CBD84E3F4DE83E3F2DE80919E028F5F55
:1024300080939E02FFBE82E580933E0510923F0589
:1024400080913E0590913F050E9424036AE0F62E9C
:102450008FEF0E94EB02FA94F110FACF80E495E03E
:102460000E94270320E030E0A90160E080E495E0CD
:102470000E943B03F82E80934A0581E0F81649F04C
:102480000E948502601B710B613D774058F381E02B
:1024900056C02AEA31E040E050E068E080E495E090
:1024A0000E943B0382FF03C0F0924B0510C054E032
:1024B000F52E0E94F20280934A05FA94F110F9CFAA
:1024C0008A3A11F082E03BC082E080934B05809114
:1024D0004B05823021F0C12CD12C760105C0C12CD6
:1024E000D12CE12C40E4F42E20E030E0A90167E398
:1024F00080E495E00E943B03A701960169E280E435
:1025000095E00E943B0380934A05882349F00E948E
:102510008502601B710B613D774030F388E00FC08E
:1025200080914B05823001F520E030E0A9016AE39B
:1025300080E495E00E943B03882341F086E080938D
:10254000450580E495E00E94E1028BC00E94F20202
:10255000807C803C19F483E080934B050E94F2025A
:102560000E94F2020E94F20280E495E00E94E102E1
:1025700080E580933E0510923F0581E01ADD8823B7
:1025800029F080916F05882339F06BC080E011DD60
:10259000882309F466C0F5CF80916305803109F581
:1025A00082E080936F05109281051092820510924F
:1025B0008305109284058091640590916505A0E0E3
:1025C000B0E035E0880F991FAA1FBB1F3A95D1F7DD
:1025D00080937D0590937E05A0937F05B093800541
:1025E0001DC08032F1F583E080936F054091660550
:1025F0005091670560916805709169054093810568
:102600005093820560938305709384052DE735E030
:102610008CE495E00E942206882319F18CE495E071
:10262000909386058093850581E080936E051092D6
:102630007005109271051092720510927305109238
:102640007405109275051092760510927705109218
:1026500078051092790510927A0510927B051092F8
:102660007C0500E212E098EE492E93E0592E612C91
:10267000712C2DE0322E88E590E08C0F9D1F0C967A
:10268000E5969FAF8EAFE5976AE675E0CE010196BD
:10269000C7DABE016F5F7F4FCE01CB96C1DA19A2B8
:1026A00018A21F8F0E8F1BA221968FAD219781112B
:1026B00012C06C961FAE1EAE6C97A0964CAE5DAE6F
:1026C0006EAE7FAEA097E3961FAE1EAEE397A596C3
:1026D0001FAEA59732C0825023E148E552E0823018
:1026E00048F46AE675E0CE014E960E94960A811182
:1026F0000DC0DFCFBE01655C7F4FCE014E960E94BC
:10270000960A8823B1F2CE01CB96C1D849A95AA91D
:102710006BA97CA9CE014E960E948A06BE01625E1C
:102720007F4FCE0101967CDA48E552E0BE016F5F33
:102730007F4FCE01885A9F4FC4DA6C968EAD9FAD05
:102740006C9790938C0580938B05A0968CAD9DAD76
:10275000AEADBFADA09780938D0590938E05A093ED
:102760008F05B0939005A4968CAD9DADAEADBFAD79
:10277000A4978093910590939205A0939305B093AD
:102780009405E596EEADFFADE597A5E9B5E0832D9F
:1027900001900D928A95E1F7E396EEADFFADE397D8
:1027A000F093A305E093A205309739F18581882342
:1027B00021F163E672E089E895E013DB6BE772E0F4
:1027C00089E895E00EDB8091A2059091A305009722
:1027D00051F05DD88091A2059091A30545D110924A
:1027E000A3051092A2056EE772E081EA94E0F9DA9F
:1027F0006BE772E081EA94E0F4DA0E9460024B0138
:102800005C0188EEC82E83E0D82EE12CF12C0E94CA
:102810006002DC01CB0188199909AA09BB09883E2D
:102820009340A105B10558F091E0C91AD108E1081B
:10283000F10828EE820E23E0921EA11CB11CC114E7
:10284000D104E104F10419F70E944E011DCFE1EA21
:10285000F4E01382128288EE93E0A0E0B0E084837B
:102860009583A683B7832EE032E03183208325EC65
:1028700030E03587248724EC30E03787268720EC4A
:1028800030E0318B208B21EC30E0338B228B22EC3B
:1028900030E0358B248B26EC30E0378B268B118E85
:1028A000128E138E148EEEE3F5E020E52083118264
:1028B000E0E4F5E0158216821186138642E050E0CE
:1028C00060E070E0448755876687778713A215A676
:1028D00014A620E232E033A722A717A6E9E8F5E024
:1028E0001382128284839583A683B7838CE292E05D
:1028F00091838083128E118E14860895EE0FFF1F30
:10290000881F8BBF0790F691E02D199409D0A59FE1
:10291000900DB49F900DA49F800D911D11240895DA
:10292000A29FB001B39FC001A39F700D811D112410
:10293000911DB29F700D811D1124911D0895CF939B
:10294000DF938230910510F482E090E0E091A605DB
:10295000F091A70520E030E0C0E0D0E0309711F121
:102960004081518148175907C0F04817590761F451
:1029700082819381209719F09B838A832BC0909347
:10298000A7058093A60526C02115310519F0421729
:10299000530718F49A01BE01DF01EF010280F381B1
:1029A000E02DDCCF2115310509F1281B390B24302E
:1029B000310590F412968D919C91139761157105D4
:1029C00021F0FB019383828304C09093A705809339
:1029D000A605FD01329644C0FD01E20FF31F81936D
:1029E0009193225031092D933C933AC02091A40534
:1029F0003091A505232B41F4209106023091070266
:102A00003093A5052093A40520910402309105027E
:102A10002115310541F42DB73EB740910802509180
:102A20000902241B350BE091A405F091A505E217DE
:102A3000F307A0F42E1B3F0B2817390778F0AC01E1
:102A40004E5F5F4F2417350748F04E0F5F1F5093BE
:102A5000A5054093A4058193919302C0E0E0F0E0C6
:102A6000CF01DF91CF9108950F931F93CF93DF9301
:102A7000009709F48CC0FC013297138212820091F6
:102A8000A6051091A7050115110581F4208131815A
:102A9000820F931F2091A4053091A50528173907AF
:102AA00079F5F093A505E093A40571C0D80140E045
:102AB00050E0AE17BF0750F412962D913C9113973A
:102AC000AD012115310509F1D901F3CF9D01DA01DD
:102AD0003383228360817181860F971F821793074A
:102AE00069F4EC0128813981260F371F2E5F3F4F93
:102AF000318320838A819B8193838283452B29F4B0
:102B0000F093A705E093A60542C01396FC93EE93BD
:102B10001297ED01499159919E01240F351FE2173B
:102B2000F30771F480819181840F951F02961196AD
:102B30009C938E938281938113969C938E9312978C
:102B4000E0E0F0E0D80112968D919C9113970097E8
:102B500019F0F8018C01F6CF8D919C9198012E5FB0
:102B60003F4F820F931F2091A4053091A505281790
:102B7000390769F4309729F41092A7051092A60539
:102B800002C0138212821093A5050093A405DF9161
:102B9000CF911F910F91089581E090E0F8941CC0AF
:102BA000FB01DC0104C08D910190801921F441509A
:102BB0005040C8F7881B990B0895FB01DC01415078
:102BC000504048F001900D920020C9F701C01D92BD
:0C2BD00041505040E0F70895F894FFCF0A
:102BDC00FFFFFFFF0000A805800000000000100FA1
:102BEC00940EBF0E570F4201CE0EE20E00000000F5
:102BFC00E50D940EBF01BE0100000000A801F50D0B
:102C0C00BF01520C87012709300900000000F00EAB
:102C1C00940EBF01BE01F00EF00EF00E000000008D
:102C2C00F00E940EBF01BE015054446174612E74B9
:102C3C007874004D79206E616D6520697320416C4C
:102C4C0069205368616272617779000D0A006974BA
:0E2C5C00207265616C6C7920776F726B73006B
:00000001FF
